:020000040800F2
:1000000000800020BD1E0008C9060008CB060008BD
:10001000CD060008CF060008D10600080000000049
:10002000000000000000000000000000D3060008EF
:10003000D506000800000000D7060008D906000811
:100040000D1F00080D1F00080D1F00080D1F0008E0
:100050000D1F00080D1F00080D1F00080D1F0008D0
:100060000D1F00080D1F00080D1F00080D1F0008C0
:100070000D1F00080D1F00080D1F00080D1F0008B0
:100080000D1F0008000000000D1F00080D1F0008D4
:100090000D1F00080D1F00080D1F00080D1F000890
:1000A0000D1F00080D1F00080D1F00080D1F000880
:1000B0000D1F00080D1F00080D1F00080D1F000870
:1000C0000D1F00080D1F00080D1F00080D1F000860
:1000D0000D1F00080D1F00080D1F00080D1F000850
:1000E0000D1F00080D1F00080D1F00080D1F000840
:1000F0000D1F00080D1F00080D1F00080000000064
:10010000000000000D1F0008000000000D1F000887
:100110000D1F0008000000000D1F00080D1F000843
:100120000D1F00080D1F00080D1F00080D1F0008FF
:100130000D1F000800000000000000000D1F000857
:100140000D1F00080D1F0008000000000000000047
:10015000000000000000000000000000000000009F
:100160000000000000000000000000000D1F00085B
:100170000D1F00080000000000000000000000004B
:10018000000000000D1F000800000000000000003B
:10019000000000000000000000000000000000005F
:1001A00000000000000000000D1F00080D1F0008E7
:1001B0000D1F00080D1F00080D1F000800000000A3
:1001C000000000000D1F00080000000000000000FB
:0801D0000D1F00080D1F0008BF
:1001D8000348044B834202D0034B03B118477047CE
:1001E8000C0000200C000020000000000548064913
:1001F8000B1AD90F01EBA301491002D0034B03B12D
:10020800184770470C0000200C0000200000000078
:1002180010B5064C237843B9FFF7DAFF044B13B146
:100228000448AFF300800123237010BD0C000020A8
:1002380000000000101F000808B5044B1BB104495A
:100248000448AFF30080BDE80840CFE70000000095
:1002580010000020101F000870B50D4E0D4D761BC4
:10026800B61006D00024013455F8043B9847A6423E
:10027800F9D1094E094D761B01F046FEB61006D09D
:100288000024013455F8043B9847A642F9D170BDC3
:10029800701F0008701F0008741F0008701F0008F6
:1002A800F0B4860746D0541E002A3CD0CAB2034692
:1002B80002E014F1FF3436D303F8012B9D07F8D17F
:1002C800032C29D9CDB245EA05250F2C45EA054569
:1002D80033D9A4F11006360903F1200707EB0617F6
:1002E80003F1100242E9045542E902551032BA42BC
:1002F800F8D1721C14F00C0F03EB021204F00F0675
:1003080013D0331F23F003030433134442F8045B70
:100318009342FBD106F003042CB1C9B21C4403F884
:10032800011B9C42FBD1F0BC704734461346002C9D
:10033800F3D1F8E714460346C2E71A462646E0E733
:1003480053B94AB9002908BF00281CBF4FF0FF3134
:100358004FF0FF3000F06EB9ADF1080C6DE904CE36
:1003680000F006F8DDF804E0DDE9022304B0704788
:100378002DE9F047089D04468C46002B40F0838009
:100388008A42174647D9B2FA82F242B1C2F1200036
:1003980024FA00F09140974040EA010C94404FEA5B
:1003A8001748230CBCFBF8F61FFA87FE08FB16C19A
:1003B80043EA014306FB0EF1994209D9FB1806F1FD
:1003C800FF3080F01981994240F21681023E3B4489
:1003D8005B1AA4B2B3FBF8F008FB103344EA0344F9
:1003E80000FB0EFEA64509D93C1900F1FF3380F049
:1003F8000581A64540F2028102383C4440EA0640A5
:10040800A4EB0E0400261DB1D4400023C5E9004327
:100418003146BDE8F08702B9FFDEB2FA82F2002A5F
:1004280050D1CB1B4FEA174E1FFA87F80126B3FBB2
:10043800FEFC210C0EFB1C3341EA034108FB0CF3C4
:100448008B4207D979180CF1FF3002D28B4200F2A7
:10045800E9808446C91AA3B2B1FBFEF00EFB101165
:1004680043EA014408FB00F8A04507D93C1900F10C
:10047800FF3302D2A04500F2D9801846A4EB080445
:1004880040EA0C40BFE78B4209D9002D00F0B1804B
:100498000026C5E9000130463146BDE8F087B3FAC9
:1004A80083F6002E4AD18B4202D3824200F2B880F2
:1004B800841A61EB030101208C46002DA8D0C5E900
:1004C800004CA5E7C2F1200320FA03F6974001FA91
:1004D80002F04FEA174ED9403043030CB1FBFEF649
:1004E8001FFA87F80EFB161143EA014306FB08F1D1
:1004F800994204FA02F409D9FB1806F1FF3C80F08E
:100508008D80994240F28A80023E3B445B1A81B258
:10051800B3FBFEF00EFB103341EA034100FB08F386
:100528008B4207D9791800F1FF3C73D28B4271D9FD
:1005380002383944CB1A40EA064678E7C6F1200C5F
:1005480003FA06F422FA0CF31C4320FA0CF701FA1A
:1005580006F34FEA144E21FA0CF11F433B0CB1FB92
:10056800FEF91FFA84F80EFB191143EA014109FB51
:1005780008FA8A4502FA06F200FA06F308D9611861
:1005880009F1FF3048D28A4546D9A9F10209214428
:10059800A1EB0A01BFB2B1FBFEF00EFB101147EA56
:1005A800014700FB08F8B84507D9E71900F1FF3102
:1005B8002ED2B8452CD90238274440EA0940A7EB87
:1005C8000807A0FB02894F45C64649461AD317D0EB
:1005D8005DB1B3EB0E0267EB010707FA0CFCF240C2
:1005E8004CEA0202F740C5E9002700263146BDE87B
:1005F800F0872E4628460BE70646E9E61846FDE64C
:100608004345E5D2B8EB020E69EB04010138DFE798
:100618000846D2E760468DE78146B9E7664675E742
:1006280030464AE7ACF1020C394413E702383C443F
:1006380024E700BF704700BF72B6FEE700B595B06B
:100648003822002106A8FFF72BFE00200190029017
:1006580003900490059001F071FA022306934FF479
:100668008072099240220A920D930E9304220F92EF
:100678005522109211931293139306A800F032FC9E
:1006880080B90F2301930323029300230393049358
:10069800059304210DEB010000F0DCFE20B915B034
:1006A8005DF804FBFFF7C8FFFFF7C6FF08B500F0C9
:1006B800CBFBFFF7C3FF01F035FB01F083FBFEE73F
:1006C800FEE7FEE7FEE7FEE7FEE770477047704784
:1006D80008B500F0C9FB08BD00B583B00B4B1A6E16
:1006E80042F001021A661A6E02F001020092009AA4
:1006F8009A6D42F080529A659B6D03F08053019386
:10070800019B01F0A1FA03B05DF804FB0010024060
:100718002DE9F04104460168836802691343426980
:100728001343C269134308689D4A024013430B6090
:100738002268536823F44053E1680B435360A1696E
:100748002268984B9A4201D0236A1943936823F090
:100758006E4323F430630B4393602268D36A23F01B
:100768000F03616A0B43D36222688F4B9A4223D0EE
:100778008E4B9A4234D08E4B9A424AD08D4B9A4235
:1007880059D0884B9A4268D0102386498A4200F093
:100798009580E069B0F5004F00F0D480082B00F296
:1007A8005281DFE813F014013701120150013A01B8
:1007B8005001500150013D0103F55843D3F88830EA
:1007C80003F00303032B09D8DFE803F002045C06F7
:1007D8000123DAE70423D8E70823D6E71023D4E770
:1007E80003F5E633D3F8883003F00C030C2B0ED84E
:1007F800DFE803F0070D0D0D090D0D0D4A0D0D0D68
:100808000B000023C1E70423BFE70823BDE710233B
:10081800BBE703F5E433D3F8883003F03003202B2B
:1008280034D004D8A3B3102B34D10423ADE7302B34
:1008380032D10823A9E703F5E233D3F8883003F06F
:10084800C003802B2AD004D853B3402B2AD10423C9
:100858009BE7C02B28D1082397E703F5C833D3F8C3
:10086800883003F44063B3F5006F1FD005D8FBB19F
:10087800B3F5806F1ED1042387E7B3F5406F1BD112
:10088800082382E7022380E702237EE702237CE72E
:1008980000237AE7102378E7102376E7022374E72A
:1008A800002372E7102370E710236EE702236CE73A
:1008B80000236AE7102368E7102366E7082B00F295
:1008C800B280DFE803F008B03DB03AB0B0B0050040
:1008D8004FF4004004E000F0BFFE002800F0A580BF
:1008E800626A354B33F81220B0FBF2F3656805EB0A
:1008F8004501994200F29B80B3EB053F00F29980D5
:100908004FF0000892B200234146FFF719FD0F028D
:1009180047EA1067060268082A464346301847F136
:100928000001FFF70DFDA0F54072244B9A4200F23A
:1009380082802368D860404662E000F047FDCCE73B
:100948001F48CDE7082B78D8DFE803F0072705779D
:100958003C7777770B001A4803E000F07DFE00280B
:100968006DD0626A144B33F81230B0FBF3F0626852
:10097800530803EB4000B0FBF2F0A0F110024FF671
:10098800EF739A425DD883B223F00F03C0F342009D
:1009980018432368D860002032E000F06FFEDEE7DD
:1009A800F369FFCF00800040003801400044004058
:1009B80000480040004C0040281F0008FFFC0F00C2
:1009C8000024F40000F002FDC9E7224803E000F02B
:1009D80043FE002839D0626A1F4B33F81230B0FB4F
:1009E800F3F0636800EB5300B0FBF3F0A0F11002E2
:1009F8004FF6EF739A422AD8236880B2D860002055
:100A08000123A4F86A30A4F86830002323676367D9
:100A1800BDE8F08100F032FEDBE700F0D7FCD8E754
:100A28004FF40040D7E70120EAE70020E8E701207B
:100A3800E6E70120E4E70120E2E70120E0E7002003
:100A4800DEE70120DCE70120DAE70020D8E7012013
:100A5800D6E700BF0024F400281F0008836A13F0BB
:100A6800010F06D00268536823F40033C16A0B43B0
:100A78005360836A13F0020F06D00268536823F4A8
:100A88008033016B0B435360836A13F0040F06D065
:100A98000268536823F48023416B0B435360836AD5
:100AA80013F0080F06D00268536823F40043816BE3
:100AB8000B435360836A13F0100F06D002689368E3
:100AC80023F48053C16B0B439360836A13F0200FA8
:100AD80006D00268936823F40053016C0B439360BB
:100AE800836A13F0400F0AD00268536823F4801316
:100AF800416C0B435360436CB3F5801F0BD0836A82
:100B080013F0800F06D00268536823F40023C16CE9
:100B18000B43536070470268536823F4C003816C29
:100B28000B435360EBE72DE9F84305460F4616469D
:100B38009946DDF820802C68E46937EA04030CBF85
:100B480001240024B44257D1B8F1FF3FF3D000F09C
:100B580097F9A0EB090040452FD8B8F1000F2CD029
:100B68002B681A6812F0040FE5D0DA6912F4006FE6
:100B7800E1D04FF400621A622A6852E8003F23F479
:100B8800D07342E800310029F6D12A6802F108033F
:100B980053E8003F23F00103083242E800310029FE
:100BA800F3D12023C5F88430C5F88830C5F88C30D7
:100BB800002385F8803003201FE02A6852E8003FB0
:100BC80023F4D07342E800310029F6D12A6802F1F3
:100BD800080353E8003F23F00103083242E80031DC
:100BE8000029F3D12023C5F88430C5F888300023C4
:100BF80085F88030032000E00020BDE8F88330B598
:100C080083B004460023C0F88C3000F039F905465B
:100C180023681B6813F0080F0FD123681B6813F0B3
:100C2800040F18D12023C4F88430C4F88830002079
:100C3800E06684F8800003B030BD6FF07E43009317
:100C4800034600224FF400112046FFF76CFF0028EE
:100C5800E3D00320EFE76FF07E4300932B4600229A
:100C68004FF480012046FFF75EFF0028DAD003200A
:100C7800E1E778B310B50446D0F884300BB32423E9
:100C8800C4F884302268136823F0010313602046F7
:100C9800FFF73EFD012813D0A36ABBB92268536849
:100CA80023F4904353602268936823F02A039360E7
:100CB8002268136843F0010313602046FFF79FFF83
:100CC80010BD80F8803001F0B1F8D8E72046FFF772
:100CD800C5FEE3E701207047436E2BB90123A0F856
:100CE8006A30A0F86830704730B403689A68C2F375
:100CF80042629968490F094D6B5CDB00084C615CE6
:100D080093FBF1F3A0F86A30AB5CDB00A25C93FBC9
:100D1800F2F3A0F8683030BC704700BF481F0008E5
:100D2800401F000890F88030012B18D0012380F86C
:100D380080302423C0F8843003681A68196821F0C9
:100D48000101196022F000520023436601680A601D
:100D58002022C0F8842080F880301846704702208E
:100D6800704738B590F88030012B1DD00446012318
:100D780080F880302423C0F8843003681D681A681E
:100D880022F001021A600268936823F06043194355
:100D98009160FFF7A1FF23681D602023C4F8843009
:100DA800002084F8800038BD0220FCE738B590F8B0
:100DB8008030012B1DD00446012380F88030242385
:100DC800C0F8843003681D681A6822F001021A60AE
:100DD8000268936823F0606319439160FFF77CFF12
:100DE80023681D602023C4F88430002084F8800024
:100DF80038BD0220FCE70000104B1B680BB901202E
:100E0800704710B504464FF47A70B0FBF3F30C4A00
:100E18001068B0FBF3F000F065FF68B90F2C01D93A
:100E280001200AE0002221464FF0FF3000F026FFA3
:100E3800044B1C60002000E0012010BD00000020D1
:100E4800080000200400002010B5032000F004FF73
:100E58000020FFF7D1FF10B10124204610BD044641
:100E6800FFF73AFCF9E70000034A136803490968E9
:100E78000B441360704700BF2800002000000020CA
:100E8800014B1868704700BF28000020124AD36839
:100E980003F00303D068C0F303100130032B11D013
:100EA8000E4BB3FBF0F30C4AD068C0F3062000FBEE
:100EB80003F0094BDB68C3F3416301335B00B0FB0C
:100EC800F3F07047064BB3FBF0F3D068C0F306208D
:100ED80000FB03F0EDE700BF001002400024F4001F
:100EE80000366E01002800F0548270B582B00446C6
:100EF800036813F0010F37D0B44A936803F00C036A
:100F0800D26802F003020C2B23D0082B23D063688D
:100F1800B3F5803F4ED0B3F5A02F51D0AB4B1A6834
:100F280022F480321A601A6822F480221A606368F8
:100F3800002B52D0FFF7A4FF0546A44B1B6813F4FF
:100F4800003F11D1FFF79CFF401B6428F5D903200F
:100F580028E2032AD9D19D4B1B6813F4003F03D024
:100F68006368002B00F01782236813F0020F5DD02E
:100F7800964A936803F00C03D26802F003020C2B24
:100F88003AD0042B3AD0E368002B75D08F4A136807
:100F980043F480731360FFF773FF05468B4B1B68A0
:100FA80013F4806F5FD1FFF76BFF401B0228F5D960
:100FB8000320F7E1854A136843F480331360B6E7EA
:100FC80003F18043A3F53C331A6842F480221A6087
:100FD8001A6842F480321A60A9E7FFF751FF054604
:100FE8007A4B1B6813F4003FBED0FFF749FF401B44
:100FF8006428F5D90320D5E1022AC2D1734B1B68B6
:1010080013F4806F03D0E368002B00F0C6816F4AA9
:10101800536823F0FE43216943EA016353606C4B34
:101028001868FFF7E9FE002840F0B981236813F03B
:10103800080F4CD063699BB3644AD2F8943043F0EC
:101048000103C2F89430FFF71BFF05465F4BD3F846
:10105800943013F0020F3AD1FFF712FF401B022819
:10106800F4D903209EE1594A536823F0FE432169CD
:1010780043EA01635360D9E7544A136823F4807341
:101088001360FFF7FDFE0546504B1B6813F4806F95
:10109800CCD0FFF7F5FE401B0228F5D9032081E1EB
:1010A8004A4AD2F8943023F00103C2F89430FFF78B
:1010B800E7FE0546454BD3F8943013F0020F06D0EF
:1010C800FFF7DEFE401B0228F4D903206AE12368FB
:1010D80013F0040F00F081803C4B9B6D13F0805F90
:1010E80036D13A4B9A6D42F080529A659B6D03F067
:1010F80080530193019B0125364B1B6813F4807FB5
:1011080028D0A368012B39D0052B3FD02F4BD3F81B
:10111800902022F00102C3F89020D3F8902022F00A
:101128000402C3F89020A368002B3DD0FFF7A8FE67
:101138000646264BD3F8903013F0020F4CD1FFF738
:101148009FFE801B41F288339842F2D9032029E19F
:101158000025D1E71F4A136843F480731360FFF733
:101168008FFE06461B4B1B6813F4807FC9D1FFF71F
:1011780087FE801B0228F5D9032013E1134AD2F811
:10118800903043F00103C2F89030CCE70F4BD3F80E
:10119800902042F00402C3F89020D3F8902042F047
:1011A8000102C3F89020BEE7FFF76AFE0646074B28
:1011B800D3F8903013F0020F0ED0FFF761FE801BBA
:1011C80041F288339842F2D90320EBE00010024044
:1011D8000400002000700040E5B9236813F0200FD8
:1011E80035D0A369E3B1774AD2F8983043F00103C8
:1011F800C2F89830FFF744FE0546724BD3F8983092
:1012080013F0020F23D1FFF73BFE401B0228F4D94D
:101218000320C7E06B4A936D23F080539365DCE7A6
:10122800684AD2F8983023F00103C2F89830FFF7E3
:1012380027FE0546634BD3F8983013F0020F06D00B
:10124800FFF71EFE401B0228F4D90320AAE0E36939
:10125800002B00F0A6805B4A926802F00C020C2A70
:1012680069D0022B1DD0574B1A6822F080721A6081
:10127800DA6822F00302DA60DA6822F0887222F46F
:101288008032DA60FFF7FCFD04464E4B1B6813F012
:10129800007F4ED0FFF7F4FD001B0228F5D903208C
:1012A80080E0484A136823F080731360FFF7E8FD75
:1012B8000546444B1B6813F0007F06D0FFF7E0FD9E
:1012C800401B0228F5D903206CE03E4AD3683E490A
:1012D8001940236A606A013843EA0013A06A43EAA6
:1012E8000023206B4008013843EA4053606B4008F4
:1012F800013843EA4063E06A43EAC0630B43D360C2
:10130800136843F080731360D36843F08073D3602D
:10131800FFF7B6FD04462B4B1B6813F0007F06D180
:10132800FFF7AEFD001B0228F5D903203AE00020A4
:1013380038E0002036E0012B36D0224BDB6803F082
:101348000301226A914231D103F0F002616A013946
:10135800B2EB011F2CD103F4FE42A16AB2EB012FBC
:1013680028D103F07842E16AB2EBC16F24D103F4CB
:10137800C001226B5208013AB1EB425F1ED103F063
:10138800C063626B5208013AB3EB426F18D1002078
:1013980008E001207047012004E0012002E001205C
:1013A80000E0002002B070BD0120FBE70120F9E752
:1013B8000120F7E70120F5E70120F3E70120F1E735
:1013C8000120EFE7001002400C809F011E4B9B6834
:1013D80003F00C03042B32D01B4B9B6803F00C0367
:1013E800082B2ED0184B9B6803F00C030C2B01D054
:1013F80000207047144AD36803F00303D068C0F391
:1014080003100130032B11D0104BB3FBF0F30E4A3D
:10141800D068C0F3062000FB03F00B4BDB68C3F376
:10142800416301335B00B0FBF3F07047084BB3FB3B
:10143800F0F3D068C0F3062000FB03F0EDE70348A3
:1014480070470348704700BF001002400024F400B2
:1014580000366E01002800F0E680F8B50C46054617
:10146800744B1B6803F00F038B420BD2714A13684D
:1014780023F00F030B431360136803F00F038B4231
:1014880040F0D3802E6816F001065FD06B68032BFE
:1014980015D0022B33D0684B1B6813F4806F00F013
:1014A800C680FFF793FF654B984233D9624A936829
:1014B80023F0F00343F08003936080262BE05E4B1B
:1014C8001B6813F0007F01D101208BE0FFF7DEFCE1
:1014D8005A4B98421AD9584B9B6813F0F00F05D015
:1014E8002E6816F0020616D0AB688BB9524A93687C
:1014F80023F0F00343F08003936080260BE04E4B0B
:101508001B6813F4003FCCD101206BE0002602E0F9
:10151800002600E00026484A936823F00303696820
:101528000B439360FFF7ACFC0746434B9B6803F003
:101538000C036A68B3EB820F08D0FFF7A1FCC01B4D
:1015480041F288339842F0D903204BE02B6813F01E
:10155800020F48D013F0040F04D0374A936843F4BD
:10156800E06393602B6813F0080F06D0324A936843
:1015780023F47C5343F4E06393602F4A936823F089
:10158800F003A9680B4393602A4B1B6803F00F0311
:10159800A34230D82B6813F0040F06D0264A93686C
:1015A80023F4E063E9680B4393602B6813F0080F9A
:1015B80007D0214A936823F46053296943EAC10399
:1015C8009360FFF703FF1C4B9B68C3F303131C4A8C
:1015D800D35C03F01F03D8401A4B18601A4B1868E5
:1015E800FFF70AFCF8BD802ECED1134A936823F08A
:1015F800F0039360C8E70F4A136823F00F032343EF
:101608001360FFF73DFC06460A4B1B6803F00F0307
:10161800A342BFD0FFF734FC801B41F288339842C5
:10162800F2D90320DEE7012070470120DAE7012024
:10163800D8E700BF002002400010024000B4C404F4
:10164800501F00080800002004000020014B186803
:10165800704700BF0800002008B5FFF7F7FF054BEB
:101668009B68C3F30223044AD35C03F01F03D840EA
:1016780008BD00BF00100240601F000808B5FFF752
:10168800E5FF054B9B68C3F3C223044AD35C03F010
:101698001F03D84008BD00BF00100240601F0008AB
:1016A800F0B583B00446036813F4002F69D0B34B38
:1016B8009B6D13F0805F1ED1B04B9A6D42F0805243
:1016C8009A659B6D03F080530193019B0126AC4AF8
:1016D800136843F480731360FFF7D2FB0546A84BE9
:1016E8001B6813F4807F08D1FFF7CAFB401B022850
:1016F800F5D9032502E00026E9E7002545BB9F4B05
:10170800D3F8903013F4407315D0226C9A4212D05B
:101718009A4AD2F8903023F44073D2F8901041F4EA
:101728008031C2F89010D2F8901021F48031C2F8BC
:101738009010C2F8903013F0010F10D145B98F4ABC
:10174800D2F8903023F44073216C0B43C2F89030E8
:10175800C6B18A4A936D23F08053936512E0FFF770
:101768008FFB0746854BD3F8903013F0020FE5D175
:10177800FFF786FBC01B41F288339842F2D9032554
:10178800DCE70025236813F0010F08D07B4AD2F864
:10179800883023F0030361680B43C2F8883023685C
:1017A80013F0020F08D0754AD2F8883023F00C03E2
:1017B800A1680B43C2F88830236813F0040F08D0DF
:1017C8006E4AD2F8883023F03003E1680B43C2F840
:1017D8008830236813F0080F08D0684AD2F8883098
:1017E80023F0C00321690B43C2F88830236813F043
:1017F800200F08D0614AD2F8883023F44063616929
:101808000B43C2F88830236813F0400F08D05B4AB6
:10181800D2F8883023F44053A1690B43C2F88830CA
:10182800236813F0800F08D0544AD2F8883023F484
:101838004043E1690B43C2F88830236813F4807F82
:1018480008D04E4AD2F8883023F44033216A0B433B
:10185800C2F88830236813F4007F08D0474AD2F8CA
:10186800883023F44023616A0B43C2F88830236828
:1018780013F4806F0CD0414AD2F8883023F4401317
:10188800A16A0B43C2F88830A36AB3F5801F57D00A
:10189800236813F4006F0CD0384AD2F8883023F448
:1018A8004003E16A0B43C2F88830E36AB3F5800F5E
:1018B8004BD0236813F4805F0CD0304AD2F88830BC
:1018C80023F04073216B0B43C2F88830236BB3F1CC
:1018D800807F3FD0236813F4005F0CD0274AD2F8EA
:1018E800883023F04063616B0B43C2F88830636B28
:1018F800B3F1006F33D0236813F4804F0CD01F4A24
:10190800D2F8883023F04063A16B0B43C2F88830CB
:10191800A36BB3F1006F27D0236813F4004F0CD0EA
:10192800164AD2F8883023F04053E16B0B43C2F8D3
:101938008830E36BB3F1805F1BD0284603B0F0BD5D
:10194800D36843F48013D360A2E7D36843F48013C9
:10195800D360AEE7D36843F48013D360BAE7D368A3
:1019680043F48013D360C6E7D36843F48013D3608D
:10197800D2E7D36843F48033D360DEE70010024037
:1019880000700040F0B482B000235BE086685F001E
:101998000325BD4026EA0506CD68BD403543856070
:1019A800466826EA04064D68C5F300149C40344393
:1019B800446055E0DD08083550F8257003F0070449
:1019C800A6000F24B44027EA04070C69B4403C433E
:1019D80040F8254058E0052400E00024B4403C438A
:1019E80002354F4E46F825404E4CA568D44325EAAB
:1019F80002064F6817F4801F01D042EA0506494DD8
:101A0800AE60ED6804EA05064F6817F4001F01D0C0
:101A180042EA0506434DEE606D6804EA05064F6824
:101A280017F4003F01D042EA05063E4D6E602D686E
:101A38002C404E6816F4803F01D042EA0504394A2A
:101A4800146001330A6832FA03F465D001249C401B
:101A58002240F6D04D6805F00305013D012D95D9CA
:101A68004C6804F00304032C09D0C5685E00032405
:101A7800B44025EA04058C68B4402C43C4604C6823
:101A880004F00304022C95D005685E000324B440DA
:101A980025EA04054C6804F00304B4402C430460B0
:101AA8004C6814F4403FCCD01F4C256E45F001051E
:101AB8002566246E04F001040194019C9D08AE1C67
:101AC800174C54F8267003F00304A6000F24B44002
:101AD80027EA0407B0F1904F3FF47FAF134CA042C0
:101AE80012D004F58064A04210D004F58064A042AE
:101AF8000ED004F58064A0420CD004F58064A042A6
:101B08003FF469AF062469E7012467E7022465E723
:101B1800032463E7042461E702B0F0BC704700BF08
:101B28000000014000040140001002400004004889
:101B38000AB181617047816270470000002836D180
:101B48003E4B1B6803F4C063B3F5806F08D03B4A73
:101B5800D2F8803023F48073C2F8803000207047B8
:101B6800364AD2F8803023F48073C2F88030136884
:101B780023F4C06343F400731360314B1A683223B3
:101B880003FB02F32F4AA2FB03239B0C013300E063
:101B9800013B2A4A526912F4806F01D0002BF7D119
:101BA800264B5B6913F4806F44D100207047B0F571
:101BB800007F08D0214A136823F4C06343F480638C
:101BC8001360002070471D4B1B6803F4C063B3F516
:101BD800806F08D0194AD2F8803043F48073C2F875
:101BE800803000207047154AD2F8803043F4807363
:101BF800C2F88030136823F4C06343F400731360A1
:101C08000F4B1A68322303FB02F30E4AA2FB03238D
:101C18009B0C013300E0013B084A526912F4806FC3
:101C280001D0002BF7D1054B5B6913F4806F03D10A
:101C38000020704703207047032070470070004061
:101C48000800002083DE1B43024A936843F4804364
:101C58009360704700700040074AD36823F4E0633C
:101C68001B041B0C000200F4E060034343F0BF6355
:101C780043F40033D360704700ED00E030B4174BF5
:101C8800DB68C3F30223C3F10704042C28BF042430
:101C98001D1D062D18D9033B4FF0FF3505FA04F436
:101CA80021EA0401994005FA03F322EA03031943E0
:101CB80000280BDB0901C9B200F1604000F5614062
:101CC80080F8001330BC70470023E5E700F00F00F0
:101CD8000901C9B2024B1954F4E700BF00ED00E056
:101CE80014ED00E00138B0F1807F0AD2064B58604D
:101CF800064AF02182F823100020986007221A6013
:101D080070470120704700BF10E000E000ED00E0E0
:101D1800034AD2F8883043F47003C2F88830704719
:101D280000ED00E010B58AB00024059406940794ED
:101D380008940994214BDA6C42F00402DA64DA6CF4
:101D480002F004020192019ADA6C42F02002DA648D
:101D5800DA6C02F020020292029ADA6C42F0010276
:101D6800DA64DA6C02F001020392039ADA6C42F048
:101D78000202DA64DB6C03F002030493049B22463C
:101D880020214FF09040FFF7D3FE4FF40053059306
:101D98004FF488130693079405A90948FFF7F2FD45
:101DA80020230593012306930794089405A94FF06F
:101DB8009040FFF7E7FD0AB010BD00BF00100240D9
:101DC8000008004808B51748174B03604FF4E13383
:101DD800436000238360C36003610C224261836116
:101DE800036243628362FEF744FF70B900210D4825
:101DF800FEF7B7FF60B900210A48FEF7D7FF50B9D0
:101E08000848FEF78FFF48B908BDFEF715FCEDE757
:101E1800FEF712FCEFE7FEF70FFCF1E7FEF70CFC0C
:101E2800F2E700BF2C0000200080004010B598B0F9
:101E3800044600211391149115911691179144228B
:101E480002A8FEF72DFA2268184B9A4201D018B062
:101E580010BD202302930023079302A8FFF720FC5C
:101E680000BB134BDA6D42F00102DA65DA6D02F05D
:101E780001020092009ADA6C42F00102DA64DB6C2B
:101E880003F001030193019B0C2313930222149284
:101E9800002215921692179313A94FF09040FFF75E
:101EA80071FDD4E7FEF7C8FBDBE700BF0080004008
:101EB800001002400D4885460D480E490E4A002381
:101EC80002E0D458C4500433C4188C42F9D30B4AE6
:101ED8000B4C002301E013600432A242FBD3FFF74E
:101EE80017FFFEF7B9F9FEF7E1FBFEE700800020D7
:101EF800000000200C000020781F00080C000020C3
:101F0800BC000020FEE70000F8B500BFF8BC08BC24
:101F18009E467047F8B500BFF8BC08BC9E4670479F
:101F2800010002000400060008000A000C0010006E
:101F3800200040008000000108040204080101019B
:101F4800010101030701000000000000000000007B
:101F58000102030406070809000000000102030447
:081F680010E4FF7F01000000FE
:041F70004102000822
:041F74001902000846
:0C1F780001000000100000000024F40034
:0400000508001EBD14
:00000001FF
